:100000000C946D000C9495000C9495000C94950044
:100010000C9495000C9495000C9495000C9495000C
:100020000C9495000C9495000C9495000C949500FC
:100030000C9495000C9495000C9495000C949500EC
:100040000C94EB070C9495000C94B9070C9493074F
:100050000C9495000C9495000C9495000C949500CC
:100060000C9495000C9495002B03310337033D034A
:10007000430349034F03B804BF04C604CD04D404AA
:10008000EB04DB04EB04E204000000002400270082
:100090002A0000000000250028002B0004040404AE
:1000A0000404040402020202020203030303030322
:1000B00001020408102040800102040810200102FF
:1000C00004081020000000080002010000030407DB
:1000D0000000000000000000350811241FBECFEF13
:1000E000D8E0DEBFCDBF11E0A0E0B1E0EAE7FBE180
:1000F00002C005900D92A833B107D9F722E0A8E31A
:10010000B1E001C01D92AA36B207E1F710E0CDE6DA
:10011000D0E004C02197FE010E946D0CCC36D107BF
:10012000C9F70E946D080C94BB0D0C9400008F92CF
:100130009F92AF92BF92CF92DF92EF92FF921F9366
:10014000CF93DF93EC01CC8CDD8CEE8CFF8C4601E1
:100150005701B7FAB094B7F8B09420E030E04AEF16
:1001600053E4C501B4010E94810B18165CF020E035
:1001700030E04AEF53E4C701B6010E94220A87FD2E
:1001800003C010C07501640120E030E0A901C7017F
:10019000B6010E94220A81110BC01B821C821D82A3
:1001A0001E8221C0C12CD12C8AEFE82E83E4F82EC8
:1001B000A701960160E074E284E799E40E94270AAF
:1001C0009F770E94A00A6B837C838D839E8311E0BE
:1001D00020E030E0A901C701B6010E94810B18168A
:1001E0000CF010E01A83C88ED98EEA8EFB8EDF9158
:1001F000CF911F91FF90EF90DF90CF90BF90AF9085
:100200009F908F900895CF92DF92EF92FF920F937D
:100210001F93CF93DF936C017A018B01C0E0D0E094
:10022000CE15DF0581F0D8016D918D01D601ED91DC
:10023000FC910190F081E02DC6010995892B11F008
:100240002196EECF7E01C701DF91CF911F910F91D3
:10025000FF90EF90DF90CF900895089580E090E0B8
:100260000895FC01538D448D252F30E0842F90E0BC
:10027000821B930B541710F0CF96089501970895A1
:10028000FC01918D828D981761F0828DDF01A80F9E
:10029000B11D5D968C91928D9F5F9F73928F90E0C0
:1002A00008958FEF9FEF0895FC01918D828D98172F
:1002B00031F0828DE80FF11D858D90E008958FEF6C
:1002C0009FEF0895FC01918D228D892F90E0805C35
:1002D0009F4F821B91098F739927089581E491E0C4
:1002E0000E94620121E0892B09F420E0822F089509
:1002F000FC01848DDF01A80FB11DA35ABF4F2C91C3
:10030000848D90E001968F739927848FA689B78991
:100310002C93A089B1898C91837080648C93938D88
:10032000848D981306C00288F389E02D80818F7D2B
:1003300080830895EF92FF920F931F93CF93DF93E3
:10034000EC0181E0888F9B8D8C8D981305C0E88926
:10035000F989808185FD26C0F62E0B8D10E00F5F98
:100360001F4F0F731127E02E8C8DE8120CC00FB6B3
:1003700007FCFACFE889F989808185FFF5CFCE01A6
:100380000E947801F1CF8B8DFE01E80FF11DE35A39
:10039000FF4FF0829FB7F8940B8FEA89FB89808129
:1003A00080620AC09FB7F894EE89FF896083E8896C
:1003B000F98980818370806480839FBF81E090E0B1
:1003C000DF91CF911F910F91FF90EF900895CF9300
:1003D000DF93EC01888D8823C9F0EA89FB8980814D
:1003E00085FD05C0A889B9898C9186FD0FC00FB61F
:1003F00007FCF5CF808185FFF2CFA889B9898C9160
:1004000085FFEDCFCE010E947801E7CFDF91CF913C
:10041000089580E090E0892B29F00E946E018111FF
:100420000C940000089590E0FC01EC53FF4F2491E0
:10043000FC01E055FF4F3491FC01E456FF4FE4917D
:10044000EE2309F43CC0222339F1233091F038F433
:100450002130A9F0223001F584B58F7D12C02730FC
:1004600091F02830A1F02430B9F4809180008F7D84
:1004700003C0809180008F77809380000DC084B589
:100480008F7784BD09C08091B0008F7703C08091C1
:10049000B0008F7D8093B000F0E0EE0FFF1FEE56AE
:1004A000FF4FA591B4919FB7F894611104C08C914E
:1004B0003095382302C0EC913E2B3C939FBF0895AA
:1004C000CF93DF9390E0FC01E055FF4F2491FC01B6
:1004D000E456FF4F8491882361F190E0880F991FC3
:1004E000FC01E857FF4FC591D491FC01EE56FF4F38
:1004F000A591B491611109C09FB7F89488812095A6
:1005000082238883EC912E230BC0623061F49FB765
:10051000F8948881322F309583238883EC912E2B99
:100520002C939FBF06C08FB7F894E8812E2B2883A9
:100530008FBFDF91CF9108953FB7F89480913D012F
:1005400090913E01A0913F01B091400126B5A89B3A
:1005500005C02F3F19F00196A11DB11D3FBFBA2F55
:10056000A92F982F8827820F911DA11DB11DBC01B5
:10057000CD0142E0660F771F881F991F4A95D1F77A
:100580000895CF93DF93FC012781222359F1EC01D9
:1005900061E080850E94600261E089850E946002BE
:1005A0008F81843011F0883039F461E08A850E94AF
:1005B000600261E08B8506C0833011F0863021F443
:1005C00061E08A850E9460028FA58F3F59F061E04B
:1005D0000E9460026EA581E068278FA5DF91CF9110
:1005E0000C941302DF91CF910895CF93DF93FC0118
:1005F00027812223A9F0EC010190F081E02D0284F3
:10060000F385E02D60E009958FA58F3F49F061E00B
:100610000E9460026EA58FA5DF91CF910C9413020A
:10062000DF91CF910895CF93DF93477055276627C9
:100630007727FA013197EC01A881B981E730F105FC
:1006400020F4EC5CFF4F0C946D0C1A96ED91FC912C
:100650001B9761E029C01A96ED91FC911B9765E00C
:1006600023C01A96ED91FC911B9764E01DC01A9669
:10067000ED91FC911B9766E017C01A96ED91FC91E5
:100680001B9762E011C01A96ED91FC911B976AE0EE
:100690000BC01A96ED91FC911B9768E005C01A9665
:1006A000ED91FC911B9769E0DF91CF910994CF9375
:1006B000DF93EC01CB01BA0126E030E040E050E0EE
:1006C0000E944E0C623071058105910559F18CF440
:1006D0006115710581059105F1F0613071058105A4
:1006E0009105C1F5E881F9810284F385E02D65E08B
:1006F0002DC0643071058105910511F1D4F065308C
:1007000071058105910531F5E881F9810284F38550
:10071000E02D66E01BC0E881F9810284F385E02DBD
:1007200064E014C0E881F9810284F385E02D61E082
:100730000DC0E881F9810284F385E02D63E006C0F5
:10074000E881F9810284F385E02D62E0CE01DF913A
:10075000CF910994DF91CF91089543705527662773
:100760007727DC01ED91FC910284F385E02D423086
:1007700051056105710571F0433051056105710541
:1007800059F0413051056105710511F065E005C072
:1007900066E003C06AE001C069E00994CF93DF938B
:1007A000EC01CB01BA0123E030E040E050E00E94D0
:1007B0004E0C613071058105910581F06230710543
:1007C0008105910591F0672B682B692BC1F4E881B5
:1007D000F9810284F385E02D64E00DC0E881F981A0
:1007E0000284F385E02D61E006C0E881F98102848E
:1007F000F385E02D62E0CE01DF91CF910994DF9186
:10080000CF9108954370552766277727DC01ED9136
:10081000FC910284F385E02D42305105610571059C
:1008200071F0433051056105710559F041305105B2
:100830006105710511F062E005C063E003C061E08D
:1008400001C060E00994CF93DF93EC01E881F98166
:100850000284F385E02D8A81811102C060E001C02D
:1008600062E0CE010995E881F9810284F385E02DEB
:100870008A81811102C061E001C063E0CE01099567
:100880008CA59DA58230910538F0880F991F880F9F
:10089000991F05970197F1F7E881F9810284F385A3
:1008A000E02D8A81811102C060E001C062E0CE01CA
:1008B000DF91CF910994CF93DF93EC0120E030E0FA
:1008C000A901688D798D8A8D9B8D0E94810B1816E8
:1008D0001CF4E8A9F9A902C0EAA9FBA9DF91CF910C
:1008E0000994CF92DF92EF92FF920F931F93CF93D1
:1008F000DF93EC019F81943041F0983031F09330D8
:1009000031F0963021F012E003C014E001C013E092
:100910002896E12CF12CC62ED12C01E0C6010E2C1C
:1009200002C0959587950A94E2F76C8180FD602757
:1009300089910E9413028FEFE81AF80AE11670F30A
:10094000DF91CF911F910F91FF90EF90DF90CF90AB
:1009500008950F931F93DC011796EC910E2F10E072
:1009600009301105C0F5F801E55CFF4F0C946D0CE2
:10097000DC01ED91FC910684F785E02D29C0DC01B6
:10098000ED91FC910088F189E02D22C0DC01ED9110
:10099000FC910288F389E02D1BC0DC01ED91FC91F4
:1009A0000488F589E02D14C0DC01ED91FC910688E6
:1009B000F789E02D0DC0DC01ED91FC91008CF18DEB
:1009C000E02D06C0DC01ED91FC91028CF38DE02D51
:1009D0001F910F9109941F910F9108954F925F926B
:1009E0006F927F928F929F92AF92BF92CF92DF923F
:1009F000EF92FF920F931F93CF93DF93EC01CC887C
:100A0000DD88EE88FF8888899989AA89BB89C81AF8
:100A1000D90AEA0AFB0A688D798D8A8D9B8D9B0124
:100A2000AC010E94860B4B015C0168A179A18AA1EF
:100A30009BA19B01AC010E94B6099B01AC01C501C1
:100A4000B4010E94270A0E94990AC114D104E1044A
:100A5000F104B1F462307105810591050CF079C0A3
:100A60001B821C821D821E82188E198E1A8E1B8E6E
:100A70001CAA1DAA1EAA1FAAC12CD12C7601EFC048
:100A80000CA91DA92EA93FA91C141D041E041F0496
:100A9000FCF410161106120613064CF46C157D05B5
:100AA0008E059F054CF52A81211153C025C00115E3
:100AB00011052105310509F44CC06C157D058E0525
:100AC0009F050CF046C08A81882309F442C036C0D5
:100AD0001016110612061306ECF4002711279801D0
:100AE0000C191D092E093F0960177107820793072A
:100AF0001CF42A81222369F19B01AC0188279927E4
:100B0000DC01821B930BA40BB50B8CAB9DABAEAB86
:100B1000BFAB1FC00115110521053105D1F0882497
:100B2000992454018C189D08AE08BF0868157905F2
:100B30008A059B0574F48A8181110BC0309520953C
:100B4000109501951F4F2F4F3F4F0CAB1DAB2EAB98
:100B50003FAB8CA89DA8AEA8BFA881149104A104A6
:100B6000B10489F488AD99ADAAADBBAD8CAF9DAF92
:100B7000AEAFBFAF81E01C141D041E041F040CF0B7
:100B800080E08A833FC0CCACDDACEEACFFACA7010B
:100B90009601C701B6010E94B6092B013C01C501AF
:100BA000B4010E94D10A20E030E040E850E40E9405
:100BB000860B20E030E040E85FE30E94B6099B012D
:100BC000AC01C301B2010E94270A9B01AC01C7011D
:100BD000B6010E94B5093B016C01FE01E05CFF4FCC
:100BE000E080F180028113819701A8010E94810BAE
:100BF000181614F473018601C701D8018CAF9DAF9C
:100C0000AEAFBFAF3FEF831A930AA30AB30A8CAA11
:100C10009DAAAEAABFAA8CAC9DACAEACBFACC501C0
:100C2000B4010E94A00A6B017C016B837C838D83DD
:100C30009E83A501940160E074E284E799E40E9438
:100C4000270A688F798F8A8F9B8F2A81211107C08D
:100C5000DC01CB01B058888F998FAA8FBB8FC70159
:100C6000B601DF91CF911F910F91FF90EF90DF9030
:100C7000CF90BF90AF909F908F907F906F905F903C
:100C80004F900895CF92DF92EF92FF92CF93DF9330
:100C9000EC01688D798D8A8D9B8D9B01AC010E9442
:100CA000860B6B017C0168A179A18AA19BA19B01A4
:100CB000AC010E94B6099B01AC01C701B6010E94BC
:100CC000270A0E94990A6CAB7DAB8EAB9FABCE011D
:100CD000DF91CF91FF90EF90DF90CF900C94EE04D6
:100CE00008950E94B60D4F925F926F927F928F92FD
:100CF0009F92AF92BF92CF92DF92EF92FF92CF93EB
:100D0000DF93EC016A017B0120E030E0A901C7011B
:100D1000B6010E94220A87FF04C0F7FAF094F7F8A0
:100D2000F09488A099A0AAA0BBA0A7019601C50134
:100D3000B4010E94220A882309F44DC06CA97DA940
:100D40008EA99FA90E94D10A2B013C01A7019601FF
:100D5000C501B4010E94270A9B01AC01C301B20185
:100D60000E94860B0E94990A6CAB7DAB8EAB9FAB49
:100D7000A701960160E070E080E090E40E94270AFD
:100D80000E94F90B26E53EE04DE25FE30E94860BF0
:100D900020E034E244E759E40E94860B68AF79AF63
:100DA0008AAF9BAFC8A2D9A2EAA2FBA2E881F981CF
:100DB0000084F185E02DCE01DF91CF91FF90EF907F
:100DC000DF90CF90BF90AF909F908F907F906F906B
:100DD0005F904F900994DF91CF91FF90EF90DF905B
:100DE000CF90BF90AF909F908F907F906F905F90CB
:100DF0004F900895CF92DF92EF92FF920F931F933F
:100E0000CF93DF93EC018AE091E09983888381E0BE
:100E10008F83188A198A1A8A1B8A1C8A1D8A1E8A3D
:100E20001F8A188E198E1A8E1B8E1C8E1D8E1E8E7A
:100E30001F8E18A219A21AA21BA2C12CD12C80E8C5
:100E4000E82E8FE3F82ECCA2DDA2EEA2FFA21B8239
:100E50001C821D821E8281E090E09DA78CA78FEFEF
:100E60008FA718A619A61AA61BA66887498784E02B
:100E70008A8785E08B871EA61CAA1DAA1EAA1FAA08
:100E800018AE19AE1AAE1BAE1CAE1DAE1EAE1FAE16
:100E90008E01005C1F4FF801C082D182E282F38292
:100EA0001A821C861D861E861F86CE010E94C102E4
:100EB000B701A601CE010E947306A70196016C8DB1
:100EC0007D8D8E8D9F8D0E94220A882309F1CC8E04
:100ED000DD8EEE8EFF8E80E094E2A4E7B9E4F801A7
:100EE00080839183A283B3838CA99DA9AEA9BFA956
:100EF000181619061A061B065CF4CE01DF91CF9175
:100F00001F910F91FF90EF90DF90CF900C944206CD
:100F1000DF91CF911F910F91FF90EF90DF90CF90D5
:100F200008950C942D0D1F920F920FB60F9211245D
:100F30002F933F934F935F936F937F938F939F93E1
:100F4000AF93BF93EF93FF9381E491E00E94780108
:100F5000FF91EF91BF91AF919F918F917F916F9191
:100F60005F914F913F912F910F900FBE0F901F9067
:100F700018951F920F920FB60F9211242F938F93F3
:100F80009F93EF93FF93E0915101F0915201808183
:100F9000E0915701F091580182FD12C0908180913B
:100FA0005A018F5F8F7320915B01821751F0E0919E
:100FB0005A01F0E0EF5BFE4F958F80935A0101C01C
:100FC0008081FF91EF919F918F912F910F900FBE94
:100FD0000F901F9018951F920F920FB60F92112429
:100FE0002F933F938F939F93AF93BF93809139013A
:100FF00090913A01A0913B01B0913C0130913801B0
:1010000023E0230F2D3720F40196A11DB11D05C04B
:1010100026E8230F0296A11DB11D2093380180936D
:10102000390190933A01A0933B01B0933C01809128
:101030003D0190913E01A0913F01B0914001019688
:10104000A11DB11D80933D0190933E01A0933F01EE
:10105000B0934001BF91AF919F918F913F912F919C
:101060000F900FBE0F901F901895E1E4F1E01382EE
:10107000128288EE93E0A0E0B0E084839583A6839B
:10108000B7838AE291E09183808385EC90E0958735
:10109000848784EC90E09787868780EC90E0918B42
:1010A000808B81EC90E0938B828B82EC90E0958B2F
:1010B000848B86EC90E0978B868B118E128E138E2C
:1010C000148E45E062E082E292E00E94FA0646E079
:1010D00063E08EED91E00C94FA06789484B582601A
:1010E00084BD84B5816084BD85B5826085BD85B5CC
:1010F000816085BD80916E00816080936E0010924A
:1011000081008091810082608093810080918100C4
:101110008160809381008091800081608093800055
:101120008091B10084608093B1008091B0008160B3
:101130008093B00080917A00846080937A008091DF
:101140007A00826080937A0080917A008160809337
:101150007A0080917A00806880937A001092C100B2
:10116000E0915101F091520182E08083E0914D01C4
:10117000F0914E011082E0914F01F09150018FECFF
:10118000808310925901E0915501F091560186E05B
:101190008083E0915301F0915401808180618083CC
:1011A000E0915301F0915401808188608083E09147
:1011B0005301F0915401808180688083E091530154
:1011C000F091540180818F7D808362E089E00E94EC
:1011D000600220E030E04AE754E460913E02709102
:1011E0003F0280914002909141020E94220A88238E
:1011F00029F180E090E0AAE7B4E480933E02909366
:101200003F02A0934002B093410280936202909308
:101210006302A0936402B09365028091560290919C
:101220005702A0915802B0915902181619061A06D1
:101230001B0624F482E292E00E94420640E050E461
:101240006CE975E482E292E00E94730620E030E0EF
:101250004AEF53E460913A0270913B0280913C0264
:1012600090913D020E94220A882321F082E292E0BE
:101270000E94970020E030E04AE754E46091FA01D0
:101280007091FB018091FC019091FD010E94220A66
:10129000882329F180E090E0AAE7B4E48093FA0182
:1012A0009093FB01A093FC01B093FD0180931E027B
:1012B00090931F02A0932002B0932102809112020A
:1012C00090911302A0911402B091150218161906FC
:1012D0001A061B0624F48EED91E00E94420640E0BF
:1012E00050E06AE775E48EED91E00E94730620E01D
:1012F00030E04AEF53E46091F6017091F70180917C
:10130000F8019091F9010E94220A882321F08EEDC4
:1013100091E00E9497000E949C024B015C0188EEC4
:10132000C82E83E0D82EE12CF12C0E949C02DC0117
:10133000CB0188199909AA09BB09883E9340A105E8
:10134000B10598F321E0C21AD108E108F10888EE4E
:10135000880E83E0981EA11CB11CC114D104E104C5
:10136000F10419F70E940902D6CF5058BB27AA27CB
:101370000E94CD090C94470B0E94390B38F00E9453
:10138000400B20F039F49F3F19F426F40C94360BEF
:101390000EF4E095E7FB0C94300BE92F0E94580BFC
:1013A00058F3BA17620773078407950720F079F49A
:1013B000A6F50C947A0B0EF4E0950B2EBA2FA02D07
:1013C0000B01B90190010C01CA01A0011124FF27F2
:1013D000591B99F0593F50F4503E68F11A16F040ED
:1013E000A22F232F342F4427585FF3CF46953795EC
:1013F0002795A795F0405395C9F77EF41F16BA0BB1
:10140000620B730B840BBAF09150A1F0FF0FBB1F5E
:10141000661F771F881FC2F70EC0BA0F621F731FA7
:10142000841F48F4879577956795B795F7959E3F04
:1014300008F0B0CF9395880F08F09927EE0F979595
:10144000879508950E940C0B08F481E008950E948E
:101450003B0A0C94470B0E94400B58F00E94390B3A
:1014600040F029F45F3F29F00C94300B51110C949B
:101470007B0B0C94360B0E94580B68F39923B1F345
:10148000552391F3951B550BBB27AA2762177307AA
:10149000840738F09F5F5F4F220F331F441FAA1F3E
:1014A000A9F335D00E2E3AF0E0E832D091505040FA
:1014B000E695001CCAF72BD0FE2F29D0660F771FA8
:1014C000881FBB1F261737074807AB07B0E809F08E
:1014D000BB0B802DBF01FF2793585F4F3AF09E3F13
:1014E000510578F00C94300B0C947B0B5F3FE4F3C8
:1014F000983ED4F3869577956795B795F7959F5F56
:10150000C9F7880F911D9695879597F90895E1E0A1
:10151000660F771F881FBB1F621773078407BA0700
:1015200020F0621B730B840BBA0BEE1F88F7E0955B
:1015300008950E94A00A6894B1110C947B0B089541
:101540000E94600B88F09F5798F0B92F9927B751E8
:10155000B0F0E1F0660F771F881F991F1AF0BA9557
:10156000C9F714C0B13091F00E947A0BB1E0089530
:101570000C947A0B672F782F8827B85F39F0B93F22
:10158000CCF3869577956795B395D9F73EF490950A
:101590008095709561957F4F8F4F9F4F0895E89488
:1015A00009C097FB3EF490958095709561957F4FAB
:1015B0008F4F9F4F9923A9F0F92F96E9BB27939559
:1015C000F695879577956795B795F111F8CFFAF469
:1015D000BB0F11F460FF1BC06F5F7F4F8F4F9F4F9A
:1015E00016C0882311F096E911C0772321F09EE8F8
:1015F000872F762F05C0662371F096E8862F70E05E
:1016000060E02AF09A95660F771F881FDAF7880F37
:101610009695879597F90895990F0008550FAA0B8D
:10162000E0E8FEEF16161706E807F907C0F01216F5
:101630001306E407F50798F0621B730B840B950BF8
:1016400039F40A2661F0232B242B252B21F408954D
:101650000A2609F4A140A6958FEF811D811D0895EA
:1016600097F99F6780E870E060E008959FEF80EC55
:10167000089500240A9416161706180609060895F8
:1016800000240A9412161306140605060895092E5E
:101690000394000C11F4882352F0BB0F40F4BF2BCD
:1016A00011F460FF04C06F5F7F4F8F4F9F4F08950D
:1016B00057FD9058440F551F59F05F3F71F0479503
:1016C000880F97FB991F61F09F3F79F087950895E8
:1016D000121613061406551FF2CF4695F1DF08C007
:1016E000161617061806991FF1CF86957105610524
:1016F00008940895E894BB2766277727CB0197F9CC
:1017000008950E940C0B08F48FEF08950E94990B26
:101710000C94470B0E94390B38F00E94400B20F0CC
:10172000952311F00C94300B0C94360B11240C946F
:101730007B0B0E94580B70F3959FC1F3950F50E0FF
:10174000551F629FF001729FBB27F00DB11D639F73
:10175000AA27F00DB11DAA1F649F6627B00DA11D19
:10176000661F829F2227B00DA11D621F739FB00DBF
:10177000A11D621F839FA00D611D221F749F33272F
:10178000A00D611D231F849F600D211D822F762FC8
:101790006A2F11249F5750409AF0F1F088234AF0A5
:1017A000EE0FFF1FBB1F661F771F881F9150504011
:1017B000A9F79E3F510580F00C94300B0C947B0BE5
:1017C0005F3FE4F3983ED4F3869577956795B79598
:1017D000F795E7959F5FC1F7FE2B880F911D9695B2
:1017E000879597F9089519F416F40C94360B0C9418
:1017F000390C0E94600BB8F39923C9F3B6F39F57D5
:10180000550B87FF0E94470C0024A0E640EA900198
:1018100080585695979528F4805C660F771F881F2F
:1018200020F026173707480730F4621B730B840B30
:10183000202931294A2BA695179407942025312574
:101840004A2758F7660F771F881F20F0261737079B
:10185000480730F4620B730B840B200D311D411DC2
:10186000A09581F7B901842F9158880F9695879597
:1018700008959F3F31F0915020F4879577956795B3
:10188000B795880F911D9695879597F90895915072
:101890005040660F771F881FD2F70895052E97FBDB
:1018A0001EF400940E94650C57FD07D00E94730C33
:1018B00007FC03D04EF40C94650C50954095309580
:1018C00021953F4F4F4F5F4F0895909580957095AC
:1018D00061957F4F8F4F9F4F0895EE0FFF1F05902B
:1018E000F491E02D0994A1E21A2EAA1BBB1BFD0165
:1018F0000DC0AA1FBB1FEE1FFF1FA217B307E407EF
:10190000F50720F0A21BB30BE40BF50B661F771F46
:10191000881F991F1A9469F7609570958095909526
:101920009B01AC01BD01CF0108950F931F93CF938D
:10193000DF938230910510F482E090E0E09168023C
:10194000F091690220E030E0A0E0B0E0309719F1BA
:10195000408151810281138148175907C8F08417CB
:10196000950769F4109731F012960C93129713961D
:101970001C9327C0009368021093690222C02115AE
:10198000310519F04217530718F49A01BD01EF0110
:10199000DF01F801DBCF21153105F9F0281B390BE8
:1019A0002430310580F48A819B816115710521F015
:1019B000FB019383828304C0909369028093680241
:1019C000FE01329644C0FE01E20FF31F8193919312
:1019D00022503109398328833AC020916602309120
:1019E0006702232B41F420910201309103013093CF
:1019F00067022093660220910001309101012115B8
:101A0000310541F42DB73EB74091040150910501D5
:101A1000241B350BE0916602F0916702E217F30791
:101A2000A0F42E1B3F0B2817390778F0AC014E5F4E
:101A30005F4F2417350748F04E0F5F1F5093670222
:101A4000409366028193919302C0E0E0F0E0CF0101
:101A5000DF91CF911F910F910895CF93DF9300975E
:101A600009F481C0FC01329713821282A0916802AE
:101A7000B0916902109781F420813181820F931F08
:101A800020916602309167022817390751F5F093CB
:101A90006702E093660267C0ED0120E030E0CE17F8
:101AA000DF0740F44A815B819E0141155105F1F049
:101AB000EA01F5CFD383C28340815181840F951F02
:101AC000C817D90759F488819981840F951F029608
:101AD000918380838A819B81938382832115310541
:101AE00029F4F0936902E09368023DC0E901FB83A9
:101AF000EA8349915991C40FD51FEC17FD0761F492
:101B000080819181840F951F0296E90199838883D2
:101B1000828193819B838A83E0E0F0E012968D912D
:101B20009C911397009719F0FD01DC01F7CF8D917F
:101B30009C9111979D012E5F3F4F820F931F209123
:101B40006602309167022817390769F4309729F443
:101B5000109269021092680202C013821282B0933E
:101B60006702A0936602DF91CF91089581E090E033
:0A1B7000F8940C94BB0DF894FFCF1D
:101B7A0000006A02200000000000F502C10270069F
:101B8A009107EE047104A9045B0423040204CE0342
:101B9A00AD0357031303000000009A01030131014A
:081BAA00E70162014001540152
:00000001FF
